{
  "contractName": "UniswapV2RouterMock",
  "abi": [
    {
      "inputs": [
        {
          "internalType": "address",
          "name": "_staking",
          "type": "address"
        }
      ],
      "stateMutability": "nonpayable",
      "type": "constructor"
    },
    {
      "inputs": [
        {
          "internalType": "address",
          "name": "_tokenA",
          "type": "address"
        },
        {
          "internalType": "address",
          "name": "_tokenB",
          "type": "address"
        },
        {
          "internalType": "uint256",
          "name": "amountADesired",
          "type": "uint256"
        },
        {
          "internalType": "uint256",
          "name": "amountBDesired",
          "type": "uint256"
        },
        {
          "internalType": "uint256",
          "name": "amountAMin",
          "type": "uint256"
        },
        {
          "internalType": "uint256",
          "name": "amountBMin",
          "type": "uint256"
        },
        {
          "internalType": "address",
          "name": "to",
          "type": "address"
        },
        {
          "internalType": "uint256",
          "name": "deadline",
          "type": "uint256"
        }
      ],
      "name": "addLiquidity",
      "outputs": [
        {
          "internalType": "uint256",
          "name": "amountA",
          "type": "uint256"
        },
        {
          "internalType": "uint256",
          "name": "amountB",
          "type": "uint256"
        },
        {
          "internalType": "uint256",
          "name": "liquidity",
          "type": "uint256"
        }
      ],
      "stateMutability": "nonpayable",
      "type": "function"
    },
    {
      "inputs": [
        {
          "internalType": "uint256",
          "name": "amountIn",
          "type": "uint256"
        },
        {
          "internalType": "uint256",
          "name": "amountOutMin",
          "type": "uint256"
        },
        {
          "internalType": "address[]",
          "name": "path",
          "type": "address[]"
        },
        {
          "internalType": "address",
          "name": "to",
          "type": "address"
        },
        {
          "internalType": "uint256",
          "name": "deadline",
          "type": "uint256"
        }
      ],
      "name": "swapExactTokensForTokens",
      "outputs": [
        {
          "internalType": "uint256[]",
          "name": "amounts",
          "type": "uint256[]"
        }
      ],
      "stateMutability": "nonpayable",
      "type": "function"
    }
  ],
  "bytecode": "0x608060405234801561001057600080fd5b50604051610afe380380610afe8339818101604052602081101561003357600080fd5b8101908080519060200190929190505050806000806101000a81548173ffffffffffffffffffffffffffffffffffffffff021916908373ffffffffffffffffffffffffffffffffffffffff16021790555050610a6a806100946000396000f3fe608060405234801561001057600080fd5b50600436106100365760003560e01c806338ed17391461003b578063e8e3370014610147575b600080fd5b6100f0600480360360a081101561005157600080fd5b8101908080359060200190929190803590602001909291908035906020019064010000000081111561008257600080fd5b82018360208201111561009457600080fd5b803590602001918460208302840111640100000000831117156100b657600080fd5b9091929391929390803573ffffffffffffffffffffffffffffffffffffffff16906020019092919080359060200190929190505050610220565b6040518080602001828103825283818151815260200191508051906020019060200280838360005b83811015610133578082015181840152602081019050610118565b505050509050019250505060405180910390f35b6101fc600480360361010081101561015e57600080fd5b81019080803573ffffffffffffffffffffffffffffffffffffffff169060200190929190803573ffffffffffffffffffffffffffffffffffffffff16906020019092919080359060200190929190803590602001909291908035906020019092919080359060200190929190803573ffffffffffffffffffffffffffffffffffffffff169060200190929190803590602001909291905050506102d6565b60405180848152602001838152602001828152602001935050505060405180910390f35b60606102783330898888600081811061023557fe5b9050602002013573ffffffffffffffffffffffffffffffffffffffff1673ffffffffffffffffffffffffffffffffffffffff16610469909392919063ffffffff16565b6102cc33888787600181811061028a57fe5b9050602002013573ffffffffffffffffffffffffffffffffffffffff1673ffffffffffffffffffffffffffffffffffffffff1661052a9092919063ffffffff16565b9695505050505050565b600080600088925087915061030e33308b8e73ffffffffffffffffffffffffffffffffffffffff16610469909392919063ffffffff16565b61033b33308a8d73ffffffffffffffffffffffffffffffffffffffff16610469909392919063ffffffff16565b61045b336104156103e860008054906101000a900473ffffffffffffffffffffffffffffffffffffffff1673ffffffffffffffffffffffffffffffffffffffff166370a08231306040518263ffffffff1660e01b8152600401808273ffffffffffffffffffffffffffffffffffffffff16815260200191505060206040518083038186803b1580156103cc57600080fd5b505afa1580156103e0573d6000803e3d6000fd5b505050506040513d60208110156103f657600080fd5b81019080805190602001909291905050506105cc90919063ffffffff16565b60008054906101000a900473ffffffffffffffffffffffffffffffffffffffff1673ffffffffffffffffffffffffffffffffffffffff1661052a9092919063ffffffff16565b985098509895505050505050565b610524846323b872dd60e01b858585604051602401808473ffffffffffffffffffffffffffffffffffffffff1681526020018373ffffffffffffffffffffffffffffffffffffffff1681526020018281526020019350505050604051602081830303815290604052907bffffffffffffffffffffffffffffffffffffffffffffffffffffffff19166020820180517bffffffffffffffffffffffffffffffffffffffffffffffffffffffff8381831617835250505050610655565b50505050565b6105c78363a9059cbb60e01b8484604051602401808373ffffffffffffffffffffffffffffffffffffffff16815260200182815260200192505050604051602081830303815290604052907bffffffffffffffffffffffffffffffffffffffffffffffffffffffff19166020820180517bffffffffffffffffffffffffffffffffffffffffffffffffffffffff8381831617835250505050610655565b505050565b6000808211610643576040517f08c379a000000000000000000000000000000000000000000000000000000000815260040180806020018281038252601a8152602001807f536166654d6174683a206469766973696f6e206279207a65726f00000000000081525060200191505060405180910390fd5b81838161064c57fe5b04905092915050565b60606106b7826040518060400160405280602081526020017f5361666545524332303a206c6f772d6c6576656c2063616c6c206661696c65648152508573ffffffffffffffffffffffffffffffffffffffff166107449092919063ffffffff16565b905060008151111561073f578080602001905160208110156106d857600080fd5b810190808051906020019092919050505061073e576040517f08c379a000000000000000000000000000000000000000000000000000000000815260040180806020018281038252602a815260200180610a0b602a913960400191505060405180910390fd5b5b505050565b6060610753848460008561075c565b90509392505050565b6060824710156107b7576040517f08c379a00000000000000000000000000000000000000000000000000000000081526004018080602001828103825260268152602001806109e56026913960400191505060405180910390fd5b6107c085610905565b610832576040517f08c379a000000000000000000000000000000000000000000000000000000000815260040180806020018281038252601d8152602001807f416464726573733a2063616c6c20746f206e6f6e2d636f6e747261637400000081525060200191505060405180910390fd5b600060608673ffffffffffffffffffffffffffffffffffffffff1685876040518082805190602001908083835b60208310610882578051825260208201915060208101905060208303925061085f565b6001836020036101000a03801982511681845116808217855250505050505090500191505060006040518083038185875af1925050503d80600081146108e4576040519150601f19603f3d011682016040523d82523d6000602084013e6108e9565b606091505b50915091506108f9828286610918565b92505050949350505050565b600080823b905060008111915050919050565b60608315610928578290506109dd565b60008351111561093b5782518084602001fd5b816040517f08c379a00000000000000000000000000000000000000000000000000000000081526004018080602001828103825283818151815260200191508051906020019080838360005b838110156109a2578082015181840152602081019050610987565b50505050905090810190601f1680156109cf5780820380516001836020036101000a031916815260200191505b509250505060405180910390fd5b939250505056fe416464726573733a20696e73756666696369656e742062616c616e636520666f722063616c6c5361666545524332303a204552433230206f7065726174696f6e20646964206e6f742073756363656564a26469706673582212200be472dec43816fd149bf2557c9ac1412b46dc7578cb2ee0fba2fb871ab3e08e64736f6c63430007040033",
  "immutableReferences": {},
  "source": "// \"SPDX-License-Identifier: UNLICENSED\"\r\npragma solidity >=0.7.0 <0.8.0;\r\n\r\nimport 'openzeppelin-solidity/contracts/token/ERC20/SafeERC20.sol';\r\nimport 'openzeppelin-solidity/contracts/math/SafeMath.sol';\r\n\r\n\r\ncontract UniswapV2RouterMock {\r\n\r\n    using SafeMath for uint256;\r\n    using SafeERC20 for IERC20;\r\n\r\n    address staking;\r\n\r\n\r\n    constructor(address _staking) {\r\n        staking = _staking;\r\n    }\r\n\r\n    function addLiquidity(\r\n        address _tokenA,\r\n        address _tokenB,\r\n        uint amountADesired,\r\n        uint amountBDesired,\r\n        uint amountAMin,\r\n        uint amountBMin,\r\n        address to,\r\n        uint deadline\r\n    ) external returns (uint amountA, uint amountB, uint liquidity) {\r\n        liquidity = 0;\r\n        amountA = amountADesired;\r\n        amountB = amountBDesired;\r\n        IERC20(_tokenA).safeTransferFrom(msg.sender, address(this), amountADesired);\r\n        IERC20(_tokenB).safeTransferFrom(msg.sender, address(this), amountBDesired);\r\n        IERC20(staking).safeTransfer(msg.sender, IERC20(staking).balanceOf(address(this)).div(1000));\r\n        return (amountA, amountB, liquidity);\r\n    }\r\n    \r\n    function swapExactTokensForTokens(\r\n        uint amountIn, \r\n        uint amountOutMin, \r\n        address[] calldata path, \r\n        address to, \r\n        uint deadline\r\n    ) external returns (uint[] memory amounts) {\r\n        IERC20(path[0]).safeTransferFrom(msg.sender, address(this), amountIn);\r\n        IERC20(path[1]).safeTransfer(msg.sender, amountIn);\r\n\r\n    \r\n        return amounts;\r\n    }\r\n\r\n}",
  "sourcePath": "E:/_dev/solidity/PolygonOptimizer/contracts/mocks/UniswapV2RouterMock.sol",
  "compiler": {
    "name": "solc",
    "version": "0.7.4+commit.3f05b770.Emscripten.clang"
  },
  "schemaVersion": "3.3.4",
  "updatedAt": "2021-04-24T06:29:10.417Z",
  "networkType": "ethereum",
  "devdoc": {
    "kind": "dev",
    "methods": {},
    "version": 1
  },
  "userdoc": {
    "kind": "user",
    "methods": {},
    "version": 1
  }
}