{
  "contractName": "UniV2Optimizer",
  "abi": [
    {
      "inputs": [
        {
          "internalType": "address",
          "name": "_tokenA",
          "type": "address"
        },
        {
          "internalType": "address",
          "name": "_tokenB",
          "type": "address"
        },
        {
          "internalType": "address",
          "name": "_staking",
          "type": "address"
        },
        {
          "internalType": "address",
          "name": "_reward",
          "type": "address"
        },
        {
          "internalType": "address",
          "name": "_stakingRewardAddr",
          "type": "address"
        },
        {
          "internalType": "address",
          "name": "_uniV2RouterAddr",
          "type": "address"
        }
      ],
      "stateMutability": "nonpayable",
      "type": "constructor"
    },
    {
      "anonymous": false,
      "inputs": [
        {
          "indexed": true,
          "internalType": "address",
          "name": "previousOwner",
          "type": "address"
        },
        {
          "indexed": true,
          "internalType": "address",
          "name": "newOwner",
          "type": "address"
        }
      ],
      "name": "OwnershipTransferred",
      "type": "event"
    },
    {
      "inputs": [],
      "name": "owner",
      "outputs": [
        {
          "internalType": "address",
          "name": "",
          "type": "address"
        }
      ],
      "stateMutability": "view",
      "type": "function",
      "constant": true
    },
    {
      "inputs": [],
      "name": "renounceOwnership",
      "outputs": [],
      "stateMutability": "nonpayable",
      "type": "function"
    },
    {
      "inputs": [],
      "name": "reward",
      "outputs": [
        {
          "internalType": "address",
          "name": "",
          "type": "address"
        }
      ],
      "stateMutability": "view",
      "type": "function",
      "constant": true
    },
    {
      "inputs": [
        {
          "internalType": "uint256",
          "name": "",
          "type": "uint256"
        }
      ],
      "name": "rewardToTokenA",
      "outputs": [
        {
          "internalType": "address",
          "name": "",
          "type": "address"
        }
      ],
      "stateMutability": "view",
      "type": "function",
      "constant": true
    },
    {
      "inputs": [
        {
          "internalType": "uint256",
          "name": "",
          "type": "uint256"
        }
      ],
      "name": "rewardToTokenB",
      "outputs": [
        {
          "internalType": "address",
          "name": "",
          "type": "address"
        }
      ],
      "stateMutability": "view",
      "type": "function",
      "constant": true
    },
    {
      "inputs": [],
      "name": "staked",
      "outputs": [
        {
          "internalType": "uint256",
          "name": "",
          "type": "uint256"
        }
      ],
      "stateMutability": "view",
      "type": "function",
      "constant": true
    },
    {
      "inputs": [],
      "name": "staking",
      "outputs": [
        {
          "internalType": "address",
          "name": "",
          "type": "address"
        }
      ],
      "stateMutability": "view",
      "type": "function",
      "constant": true
    },
    {
      "inputs": [],
      "name": "stakingRewardAddr",
      "outputs": [
        {
          "internalType": "address",
          "name": "",
          "type": "address"
        }
      ],
      "stateMutability": "view",
      "type": "function",
      "constant": true
    },
    {
      "inputs": [],
      "name": "tokenA",
      "outputs": [
        {
          "internalType": "address",
          "name": "",
          "type": "address"
        }
      ],
      "stateMutability": "view",
      "type": "function",
      "constant": true
    },
    {
      "inputs": [],
      "name": "tokenB",
      "outputs": [
        {
          "internalType": "address",
          "name": "",
          "type": "address"
        }
      ],
      "stateMutability": "view",
      "type": "function",
      "constant": true
    },
    {
      "inputs": [
        {
          "internalType": "address",
          "name": "newOwner",
          "type": "address"
        }
      ],
      "name": "transferOwnership",
      "outputs": [],
      "stateMutability": "nonpayable",
      "type": "function"
    },
    {
      "inputs": [],
      "name": "uniV2RouterAddr",
      "outputs": [
        {
          "internalType": "address",
          "name": "",
          "type": "address"
        }
      ],
      "stateMutability": "view",
      "type": "function",
      "constant": true
    },
    {
      "inputs": [
        {
          "internalType": "uint256",
          "name": "_amount",
          "type": "uint256"
        }
      ],
      "name": "stake",
      "outputs": [],
      "stateMutability": "nonpayable",
      "type": "function"
    },
    {
      "inputs": [
        {
          "internalType": "uint256",
          "name": "_amount",
          "type": "uint256"
        }
      ],
      "name": "withdraw",
      "outputs": [],
      "stateMutability": "nonpayable",
      "type": "function"
    },
    {
      "inputs": [],
      "name": "harvest",
      "outputs": [],
      "stateMutability": "nonpayable",
      "type": "function"
    },
    {
      "inputs": [],
      "name": "exitAvalanche",
      "outputs": [],
      "stateMutability": "nonpayable",
      "type": "function"
    },
    {
      "inputs": [
        {
          "internalType": "address",
          "name": "_ERC20",
          "type": "address"
        }
      ],
      "name": "recoverERC20",
      "outputs": [],
      "stateMutability": "nonpayable",
      "type": "function"
    },
    {
      "inputs": [],
      "name": "getPendingRewards",
      "outputs": [
        {
          "internalType": "uint256",
          "name": "",
          "type": "uint256"
        }
      ],
      "stateMutability": "view",
      "type": "function",
      "constant": true
    }
  ],
  "bytecode": "0x608060405260006009553480156200001657600080fd5b5060405162003c8d38038062003c8d833981810160405260c08110156200003c57600080fd5b81019080805190602001909291908051906020019092919080519060200190929190805190602001909291908051906020019092919080519060200190929190505050600062000091620005d560201b60201c565b9050806000806101000a81548173ffffffffffffffffffffffffffffffffffffffff021916908373ffffffffffffffffffffffffffffffffffffffff1602179055508073ffffffffffffffffffffffffffffffffffffffff16600073ffffffffffffffffffffffffffffffffffffffff167f8be0079c531659141344cd1fd0a4f28419497f9722a3daafe3b4186f6b6457e060405160405180910390a35085600160006101000a81548173ffffffffffffffffffffffffffffffffffffffff021916908373ffffffffffffffffffffffffffffffffffffffff16021790555084600260006101000a81548173ffffffffffffffffffffffffffffffffffffffff021916908373ffffffffffffffffffffffffffffffffffffffff16021790555083600360006101000a81548173ffffffffffffffffffffffffffffffffffffffff021916908373ffffffffffffffffffffffffffffffffffffffff16021790555082600460006101000a81548173ffffffffffffffffffffffffffffffffffffffff021916908373ffffffffffffffffffffffffffffffffffffffff16021790555081600560006101000a81548173ffffffffffffffffffffffffffffffffffffffff021916908373ffffffffffffffffffffffffffffffffffffffff16021790555080600660006101000a81548173ffffffffffffffffffffffffffffffffffffffff021916908373ffffffffffffffffffffffffffffffffffffffff16021790555060405180604001604052808473ffffffffffffffffffffffffffffffffffffffff1673ffffffffffffffffffffffffffffffffffffffff1681526020018773ffffffffffffffffffffffffffffffffffffffff1673ffffffffffffffffffffffffffffffffffffffff1681525060079060026200033492919062000b6f565b5060405180604001604052808473ffffffffffffffffffffffffffffffffffffffff1673ffffffffffffffffffffffffffffffffffffffff1681526020018673ffffffffffffffffffffffffffffffffffffffff1673ffffffffffffffffffffffffffffffffffffffff168152506008906002620003b492919062000b6f565b50620003e88260008673ffffffffffffffffffffffffffffffffffffffff16620005dd60201b620018fc179092919060201c565b6200043a827fffffffffffffffffffffffffffffffffffffffffffffffffffffffffffffffff8673ffffffffffffffffffffffffffffffffffffffff16620005dd60201b620018fc179092919060201c565b6200046d8160008573ffffffffffffffffffffffffffffffffffffffff16620005dd60201b620018fc179092919060201c565b620004bf817fffffffffffffffffffffffffffffffffffffffffffffffffffffffffffffffff8573ffffffffffffffffffffffffffffffffffffffff16620005dd60201b620018fc179092919060201c565b620004f28160008873ffffffffffffffffffffffffffffffffffffffff16620005dd60201b620018fc179092919060201c565b62000544817fffffffffffffffffffffffffffffffffffffffffffffffffffffffffffffffff8873ffffffffffffffffffffffffffffffffffffffff16620005dd60201b620018fc179092919060201c565b620005778160008773ffffffffffffffffffffffffffffffffffffffff16620005dd60201b620018fc179092919060201c565b620005c9817fffffffffffffffffffffffffffffffffffffffffffffffffffffffffffffffff8773ffffffffffffffffffffffffffffffffffffffff16620005dd60201b620018fc179092919060201c565b50505050505062000c1d565b600033905090565b6000811480620006af575060008373ffffffffffffffffffffffffffffffffffffffff1663dd62ed3e30856040518363ffffffff1660e01b8152600401808373ffffffffffffffffffffffffffffffffffffffff1681526020018273ffffffffffffffffffffffffffffffffffffffff1681526020019250505060206040518083038186803b1580156200067057600080fd5b505afa15801562000685573d6000803e3d6000fd5b505050506040513d60208110156200069c57600080fd5b8101908080519060200190929190505050145b62000706576040517f08c379a000000000000000000000000000000000000000000000000000000000815260040180806020018281038252603681526020018062003c576036913960400191505060405180910390fd5b620007ab8363095ea7b360e01b8484604051602401808373ffffffffffffffffffffffffffffffffffffffff16815260200182815260200192505050604051602081830303815290604052907bffffffffffffffffffffffffffffffffffffffffffffffffffffffff19166020820180517bffffffffffffffffffffffffffffffffffffffffffffffffffffffff8381831617835250505050620007b060201b60201c565b505050565b606062000819826040518060400160405280602081526020017f5361666545524332303a206c6f772d6c6576656c2063616c6c206661696c65648152508573ffffffffffffffffffffffffffffffffffffffff16620008aa60201b62001ac1179092919060201c565b9050600081511115620008a5578080602001905160208110156200083c57600080fd5b8101908080519060200190929190505050620008a4576040517f08c379a000000000000000000000000000000000000000000000000000000000815260040180806020018281038252602a81526020018062003c2d602a913960400191505060405180910390fd5b5b505050565b6060620008c18484600085620008ca60201b60201c565b90509392505050565b60608247101562000927576040517f08c379a000000000000000000000000000000000000000000000000000000000815260040180806020018281038252602681526020018062003c076026913960400191505060405180910390fd5b620009388562000a8a60201b60201c565b620009ab576040517f08c379a000000000000000000000000000000000000000000000000000000000815260040180806020018281038252601d8152602001807f416464726573733a2063616c6c20746f206e6f6e2d636f6e747261637400000081525060200191505060405180910390fd5b600060608673ffffffffffffffffffffffffffffffffffffffff1685876040518082805190602001908083835b60208310620009fd5780518252602082019150602081019050602083039250620009d8565b6001836020036101000a03801982511681845116808217855250505050505090500191505060006040518083038185875af1925050503d806000811462000a61576040519150601f19603f3d011682016040523d82523d6000602084013e62000a66565b606091505b509150915062000a7e82828662000a9d60201b60201c565b92505050949350505050565b600080823b905060008111915050919050565b6060831562000aaf5782905062000b68565b60008351111562000ac35782518084602001fd5b816040517f08c379a00000000000000000000000000000000000000000000000000000000081526004018080602001828103825283818151815260200191508051906020019080838360005b8381101562000b2c57808201518184015260208101905062000b0f565b50505050905090810190601f16801562000b5a5780820380516001836020036101000a031916815260200191505b509250505060405180910390fd5b9392505050565b82805482825590600052602060002090810192821562000beb579160200282015b8281111562000bea5782518260006101000a81548173ffffffffffffffffffffffffffffffffffffffff021916908373ffffffffffffffffffffffffffffffffffffffff1602179055509160200191906001019062000b90565b5b50905062000bfa919062000bfe565b5090565b5b8082111562000c1957600081600090555060010162000bff565b5090565b612fda8062000c2d6000396000f3fe608060405234801561001057600080fd5b50600436106101165760003560e01c80637fb63833116100a2578063a09e4c7911610071578063a09e4c79146103a7578063a694fc3a146103db578063d9621f9e14610409578063f2fde38b14610427578063f302fbba1461046b57610116565b80637fb63833146102a3578063891f39f9146102d75780638da5cb5b1461032f5780639e8c708e1461036357610116565b806330d48f65116100e957806330d48f65146101cf5780634641257d146102275780634cf088d9146102315780635f64b55b14610265578063715018a61461029957610116565b80630b76619b1461011b5780630fc63d1014610139578063228cb7331461016d5780632e1a7d4d146101a1575b600080fd5b610123610475565b6040518082815260200191505060405180910390f35b61014161047b565b604051808273ffffffffffffffffffffffffffffffffffffffff16815260200191505060405180910390f35b6101756104a1565b604051808273ffffffffffffffffffffffffffffffffffffffff16815260200191505060405180910390f35b6101cd600480360360208110156101b757600080fd5b81019080803590602001909291905050506104c7565b005b6101fb600480360360208110156101e557600080fd5b81019080803590602001909291905050506105cf565b604051808273ffffffffffffffffffffffffffffffffffffffff16815260200191505060405180910390f35b61022f61060e565b005b6102396106df565b604051808273ffffffffffffffffffffffffffffffffffffffff16815260200191505060405180910390f35b61026d610705565b604051808273ffffffffffffffffffffffffffffffffffffffff16815260200191505060405180910390f35b6102a161072b565b005b6102ab610898565b604051808273ffffffffffffffffffffffffffffffffffffffff16815260200191505060405180910390f35b610303600480360360208110156102ed57600080fd5b81019080803590602001909291905050506108be565b604051808273ffffffffffffffffffffffffffffffffffffffff16815260200191505060405180910390f35b6103376108fd565b604051808273ffffffffffffffffffffffffffffffffffffffff16815260200191505060405180910390f35b6103a56004803603602081101561037957600080fd5b81019080803573ffffffffffffffffffffffffffffffffffffffff169060200190929190505050610926565b005b6103af610b4f565b604051808273ffffffffffffffffffffffffffffffffffffffff16815260200191505060405180910390f35b610407600480360360208110156103f157600080fd5b8101908080359060200190929190505050610b75565b005b610411610d4e565b6040518082815260200191505060405180910390f35b6104696004803603602081101561043d57600080fd5b81019080803573ffffffffffffffffffffffffffffffffffffffff169060200190929190505050610ecd565b005b6104736110bf565b005b60095481565b600160009054906101000a900473ffffffffffffffffffffffffffffffffffffffff1681565b600460009054906101000a900473ffffffffffffffffffffffffffffffffffffffff1681565b6104cf611ad9565b73ffffffffffffffffffffffffffffffffffffffff166104ed6108fd565b73ffffffffffffffffffffffffffffffffffffffff1614610576576040517f08c379a00000000000000000000000000000000000000000000000000000000081526004018080602001828103825260208152602001807f4f776e61626c653a2063616c6c6572206973206e6f7420746865206f776e657281525060200191505060405180910390fd5b61057f81611ae1565b6105cc3382600360009054906101000a900473ffffffffffffffffffffffffffffffffffffffff1673ffffffffffffffffffffffffffffffffffffffff16611b8c9092919063ffffffff16565b50565b600781815481106105df57600080fd5b906000526020600020016000915054906101000a900473ffffffffffffffffffffffffffffffffffffffff1681565b610616611ad9565b73ffffffffffffffffffffffffffffffffffffffff166106346108fd565b73ffffffffffffffffffffffffffffffffffffffff16146106bd576040517f08c379a00000000000000000000000000000000000000000000000000000000081526004018080602001828103825260208152602001807f4f776e61626c653a2063616c6c6572206973206e6f7420746865206f776e657281525060200191505060405180910390fd5b6106c5611c2e565b6106cd611cbe565b6106d5612342565b6106dd612670565b565b600360009054906101000a900473ffffffffffffffffffffffffffffffffffffffff1681565b600260009054906101000a900473ffffffffffffffffffffffffffffffffffffffff1681565b610733611ad9565b73ffffffffffffffffffffffffffffffffffffffff166107516108fd565b73ffffffffffffffffffffffffffffffffffffffff16146107da576040517f08c379a00000000000000000000000000000000000000000000000000000000081526004018080602001828103825260208152602001807f4f776e61626c653a2063616c6c6572206973206e6f7420746865206f776e657281525060200191505060405180910390fd5b600073ffffffffffffffffffffffffffffffffffffffff1660008054906101000a900473ffffffffffffffffffffffffffffffffffffffff1673ffffffffffffffffffffffffffffffffffffffff167f8be0079c531659141344cd1fd0a4f28419497f9722a3daafe3b4186f6b6457e060405160405180910390a360008060006101000a81548173ffffffffffffffffffffffffffffffffffffffff021916908373ffffffffffffffffffffffffffffffffffffffff160217905550565b600660009054906101000a900473ffffffffffffffffffffffffffffffffffffffff1681565b600881815481106108ce57600080fd5b906000526020600020016000915054906101000a900473ffffffffffffffffffffffffffffffffffffffff1681565b60008060009054906101000a900473ffffffffffffffffffffffffffffffffffffffff16905090565b61092e611ad9565b73ffffffffffffffffffffffffffffffffffffffff1661094c6108fd565b73ffffffffffffffffffffffffffffffffffffffff16146109d5576040517f08c379a00000000000000000000000000000000000000000000000000000000081526004018080602001828103825260208152602001807f4f776e61626c653a2063616c6c6572206973206e6f7420746865206f776e657281525060200191505060405180910390fd5b60008173ffffffffffffffffffffffffffffffffffffffff166370a08231306040518263ffffffff1660e01b8152600401808273ffffffffffffffffffffffffffffffffffffffff16815260200191505060206040518083038186803b158015610a3e57600080fd5b505afa158015610a52573d6000803e3d6000fd5b505050506040513d6020811015610a6857600080fd5b81019080805190602001909291905050501115610b4c57610b4b338273ffffffffffffffffffffffffffffffffffffffff166370a08231306040518263ffffffff1660e01b8152600401808273ffffffffffffffffffffffffffffffffffffffff16815260200191505060206040518083038186803b158015610aea57600080fd5b505afa158015610afe573d6000803e3d6000fd5b505050506040513d6020811015610b1457600080fd5b81019080805190602001909291905050508373ffffffffffffffffffffffffffffffffffffffff16611b8c9092919063ffffffff16565b5b50565b600560009054906101000a900473ffffffffffffffffffffffffffffffffffffffff1681565b610b7d611ad9565b73ffffffffffffffffffffffffffffffffffffffff16610b9b6108fd565b73ffffffffffffffffffffffffffffffffffffffff1614610c24576040517f08c379a00000000000000000000000000000000000000000000000000000000081526004018080602001828103825260208152602001807f4f776e61626c653a2063616c6c6572206973206e6f7420746865206f776e657281525060200191505060405180910390fd5b80600360009054906101000a900473ffffffffffffffffffffffffffffffffffffffff1673ffffffffffffffffffffffffffffffffffffffff166370a08231336040518263ffffffff1660e01b8152600401808273ffffffffffffffffffffffffffffffffffffffff16815260200191505060206040518083038186803b158015610cae57600080fd5b505afa158015610cc2573d6000803e3d6000fd5b505050506040513d6020811015610cd857600080fd5b81019080805190602001909291905050501015610cf457600080fd5b610d43333083600360009054906101000a900473ffffffffffffffffffffffffffffffffffffffff1673ffffffffffffffffffffffffffffffffffffffff166128a0909392919063ffffffff16565b610d4b612670565b50565b6000610d58611ad9565b73ffffffffffffffffffffffffffffffffffffffff16610d766108fd565b73ffffffffffffffffffffffffffffffffffffffff1614610dff576040517f08c379a00000000000000000000000000000000000000000000000000000000081526004018080602001828103825260208152602001807f4f776e61626c653a2063616c6c6572206973206e6f7420746865206f776e657281525060200191505060405180910390fd5b6000600560009054906101000a900473ffffffffffffffffffffffffffffffffffffffff1673ffffffffffffffffffffffffffffffffffffffff16628cc262306040518263ffffffff1660e01b8152600401808273ffffffffffffffffffffffffffffffffffffffff16815260200191505060206040518083038186803b158015610e8957600080fd5b505afa158015610e9d573d6000803e3d6000fd5b505050506040513d6020811015610eb357600080fd5b810190808051906020019092919050505090508091505090565b610ed5611ad9565b73ffffffffffffffffffffffffffffffffffffffff16610ef36108fd565b73ffffffffffffffffffffffffffffffffffffffff1614610f7c576040517f08c379a00000000000000000000000000000000000000000000000000000000081526004018080602001828103825260208152602001807f4f776e61626c653a2063616c6c6572206973206e6f7420746865206f776e657281525060200191505060405180910390fd5b600073ffffffffffffffffffffffffffffffffffffffff168173ffffffffffffffffffffffffffffffffffffffff161415611002576040517f08c379a0000000000000000000000000000000000000000000000000000000008152600401808060200182810382526026815260200180612ef96026913960400191505060405180910390fd5b8073ffffffffffffffffffffffffffffffffffffffff1660008054906101000a900473ffffffffffffffffffffffffffffffffffffffff1673ffffffffffffffffffffffffffffffffffffffff167f8be0079c531659141344cd1fd0a4f28419497f9722a3daafe3b4186f6b6457e060405160405180910390a3806000806101000a81548173ffffffffffffffffffffffffffffffffffffffff021916908373ffffffffffffffffffffffffffffffffffffffff16021790555050565b6110c7611ad9565b73ffffffffffffffffffffffffffffffffffffffff166110e56108fd565b73ffffffffffffffffffffffffffffffffffffffff161461116e576040517f08c379a00000000000000000000000000000000000000000000000000000000081526004018080602001828103825260208152602001807f4f776e61626c653a2063616c6c6572206973206e6f7420746865206f776e657281525060200191505060405180910390fd5b611176612961565b61117e611cbe565b611186612342565b6000600360009054906101000a900473ffffffffffffffffffffffffffffffffffffffff1673ffffffffffffffffffffffffffffffffffffffff166370a08231306040518263ffffffff1660e01b8152600401808273ffffffffffffffffffffffffffffffffffffffff16815260200191505060206040518083038186803b15801561121157600080fd5b505afa158015611225573d6000803e3d6000fd5b505050506040513d602081101561123b57600080fd5b810190808051906020019092919050505011156113635761136233600360009054906101000a900473ffffffffffffffffffffffffffffffffffffffff1673ffffffffffffffffffffffffffffffffffffffff166370a08231306040518263ffffffff1660e01b8152600401808273ffffffffffffffffffffffffffffffffffffffff16815260200191505060206040518083038186803b1580156112df57600080fd5b505afa1580156112f3573d6000803e3d6000fd5b505050506040513d602081101561130957600080fd5b8101908080519060200190929190505050600360009054906101000a900473ffffffffffffffffffffffffffffffffffffffff1673ffffffffffffffffffffffffffffffffffffffff16611b8c9092919063ffffffff16565b5b6000600160009054906101000a900473ffffffffffffffffffffffffffffffffffffffff1673ffffffffffffffffffffffffffffffffffffffff166370a08231306040518263ffffffff1660e01b8152600401808273ffffffffffffffffffffffffffffffffffffffff16815260200191505060206040518083038186803b1580156113ee57600080fd5b505afa158015611402573d6000803e3d6000fd5b505050506040513d602081101561141857600080fd5b810190808051906020019092919050505011156115405761153f33600160009054906101000a900473ffffffffffffffffffffffffffffffffffffffff1673ffffffffffffffffffffffffffffffffffffffff166370a08231306040518263ffffffff1660e01b8152600401808273ffffffffffffffffffffffffffffffffffffffff16815260200191505060206040518083038186803b1580156114bc57600080fd5b505afa1580156114d0573d6000803e3d6000fd5b505050506040513d60208110156114e657600080fd5b8101908080519060200190929190505050600160009054906101000a900473ffffffffffffffffffffffffffffffffffffffff1673ffffffffffffffffffffffffffffffffffffffff16611b8c9092919063ffffffff16565b5b6000600260009054906101000a900473ffffffffffffffffffffffffffffffffffffffff1673ffffffffffffffffffffffffffffffffffffffff166370a08231306040518263ffffffff1660e01b8152600401808273ffffffffffffffffffffffffffffffffffffffff16815260200191505060206040518083038186803b1580156115cb57600080fd5b505afa1580156115df573d6000803e3d6000fd5b505050506040513d60208110156115f557600080fd5b8101908080519060200190929190505050111561171d5761171c33600260009054906101000a900473ffffffffffffffffffffffffffffffffffffffff1673ffffffffffffffffffffffffffffffffffffffff166370a08231306040518263ffffffff1660e01b8152600401808273ffffffffffffffffffffffffffffffffffffffff16815260200191505060206040518083038186803b15801561169957600080fd5b505afa1580156116ad573d6000803e3d6000fd5b505050506040513d60208110156116c357600080fd5b8101908080519060200190929190505050600260009054906101000a900473ffffffffffffffffffffffffffffffffffffffff1673ffffffffffffffffffffffffffffffffffffffff16611b8c9092919063ffffffff16565b5b6000600460009054906101000a900473ffffffffffffffffffffffffffffffffffffffff1673ffffffffffffffffffffffffffffffffffffffff166370a08231306040518263ffffffff1660e01b8152600401808273ffffffffffffffffffffffffffffffffffffffff16815260200191505060206040518083038186803b1580156117a857600080fd5b505afa1580156117bc573d6000803e3d6000fd5b505050506040513d60208110156117d257600080fd5b810190808051906020019092919050505011156118fa576118f933600460009054906101000a900473ffffffffffffffffffffffffffffffffffffffff1673ffffffffffffffffffffffffffffffffffffffff166370a08231306040518263ffffffff1660e01b8152600401808273ffffffffffffffffffffffffffffffffffffffff16815260200191505060206040518083038186803b15801561187657600080fd5b505afa15801561188a573d6000803e3d6000fd5b505050506040513d60208110156118a057600080fd5b8101908080519060200190929190505050600460009054906101000a900473ffffffffffffffffffffffffffffffffffffffff1673ffffffffffffffffffffffffffffffffffffffff16611b8c9092919063ffffffff16565b5b565b60008114806119ca575060008373ffffffffffffffffffffffffffffffffffffffff1663dd62ed3e30856040518363ffffffff1660e01b8152600401808373ffffffffffffffffffffffffffffffffffffffff1681526020018273ffffffffffffffffffffffffffffffffffffffff1681526020019250505060206040518083038186803b15801561198d57600080fd5b505afa1580156119a1573d6000803e3d6000fd5b505050506040513d60208110156119b757600080fd5b8101908080519060200190929190505050145b611a1f576040517f08c379a0000000000000000000000000000000000000000000000000000000008152600401808060200182810382526036815260200180612f6f6036913960400191505060405180910390fd5b611abc8363095ea7b360e01b8484604051602401808373ffffffffffffffffffffffffffffffffffffffff16815260200182815260200192505050604051602081830303815290604052907bffffffffffffffffffffffffffffffffffffffffffffffffffffffff19166020820180517bffffffffffffffffffffffffffffffffffffffffffffffffffffffff83818316178352505050506129ed565b505050565b6060611ad08484600085612adc565b90509392505050565b600033905090565b600560009054906101000a900473ffffffffffffffffffffffffffffffffffffffff1673ffffffffffffffffffffffffffffffffffffffff16632e1a7d4d826040518263ffffffff1660e01b815260040180828152602001915050600060405180830381600087803b158015611b5657600080fd5b505af1158015611b6a573d6000803e3d6000fd5b50505050611b8381600954612c8590919063ffffffff16565b60098190555050565b611c298363a9059cbb60e01b8484604051602401808373ffffffffffffffffffffffffffffffffffffffff16815260200182815260200192505050604051602081830303815290604052907bffffffffffffffffffffffffffffffffffffffffffffffffffffffff19166020820180517bffffffffffffffffffffffffffffffffffffffffffffffffffffffff83818316178352505050506129ed565b505050565b60006009541115611cbc57600560009054906101000a900473ffffffffffffffffffffffffffffffffffffffff1673ffffffffffffffffffffffffffffffffffffffff16633d18b9126040518163ffffffff1660e01b8152600401600060405180830381600087803b158015611ca357600080fd5b505af1158015611cb7573d6000803e3d6000fd5b505050505b565b6000600460009054906101000a900473ffffffffffffffffffffffffffffffffffffffff1673ffffffffffffffffffffffffffffffffffffffff166370a08231306040518263ffffffff1660e01b8152600401808273ffffffffffffffffffffffffffffffffffffffff16815260200191505060206040518083038186803b158015611d4957600080fd5b505afa158015611d5d573d6000803e3d6000fd5b505050506040513d6020811015611d7357600080fd5b81019080805190602001909291905050501115612340576000611e636002600460009054906101000a900473ffffffffffffffffffffffffffffffffffffffff1673ffffffffffffffffffffffffffffffffffffffff166370a08231306040518263ffffffff1660e01b8152600401808273ffffffffffffffffffffffffffffffffffffffff16815260200191505060206040518083038186803b158015611e1a57600080fd5b505afa158015611e2e573d6000803e3d6000fd5b505050506040513d6020811015611e4457600080fd5b8101908080519060200190929190505050612d0890919063ffffffff16565b9050600660009054906101000a900473ffffffffffffffffffffffffffffffffffffffff1673ffffffffffffffffffffffffffffffffffffffff166338ed1739826000600730611ebe61025842612d9190919063ffffffff16565b6040518663ffffffff1660e01b815260040180868152602001858152602001806020018473ffffffffffffffffffffffffffffffffffffffff1681526020018381526020018281038252858181548152602001915080548015611f7657602002820191906000526020600020905b8160009054906101000a900473ffffffffffffffffffffffffffffffffffffffff1673ffffffffffffffffffffffffffffffffffffffff1681526020019060010190808311611f2c575b50509650505050505050600060405180830381600087803b158015611f9a57600080fd5b505af1158015611fae573d6000803e3d6000fd5b505050506040513d6000823e3d601f19601f820116820180604052506020811015611fd857600080fd5b8101908080516040519392919084640100000000821115611ff857600080fd5b8382019150602082018581111561200e57600080fd5b825186602082028301116401000000008211171561202b57600080fd5b8083526020830192505050908051906020019060200280838360005b83811015612062578082015181840152602081019050612047565b5050505090500160405250505050600660009054906101000a900473ffffffffffffffffffffffffffffffffffffffff1673ffffffffffffffffffffffffffffffffffffffff166338ed1739600460009054906101000a900473ffffffffffffffffffffffffffffffffffffffff1673ffffffffffffffffffffffffffffffffffffffff166370a08231306040518263ffffffff1660e01b8152600401808273ffffffffffffffffffffffffffffffffffffffff16815260200191505060206040518083038186803b15801561213757600080fd5b505afa15801561214b573d6000803e3d6000fd5b505050506040513d602081101561216157600080fd5b8101908080519060200190929190505050600060083061218c61025842612d9190919063ffffffff16565b6040518663ffffffff1660e01b815260040180868152602001858152602001806020018473ffffffffffffffffffffffffffffffffffffffff168152602001838152602001828103825285818154815260200191508054801561224457602002820191906000526020600020905b8160009054906101000a900473ffffffffffffffffffffffffffffffffffffffff1673ffffffffffffffffffffffffffffffffffffffff16815260200190600101908083116121fa575b50509650505050505050600060405180830381600087803b15801561226857600080fd5b505af115801561227c573d6000803e3d6000fd5b505050506040513d6000823e3d601f19601f8201168201806040525060208110156122a657600080fd5b81019080805160405193929190846401000000008211156122c657600080fd5b838201915060208201858111156122dc57600080fd5b82518660208202830111640100000000821117156122f957600080fd5b8083526020830192505050908051906020019060200280838360005b83811015612330578082015181840152602081019050612315565b5050505090500160405250505050505b565b6000600160009054906101000a900473ffffffffffffffffffffffffffffffffffffffff1673ffffffffffffffffffffffffffffffffffffffff166370a08231306040518263ffffffff1660e01b8152600401808273ffffffffffffffffffffffffffffffffffffffff16815260200191505060206040518083038186803b1580156123cd57600080fd5b505afa1580156123e1573d6000803e3d6000fd5b505050506040513d60208110156123f757600080fd5b810190808051906020019092919050505090506000600260009054906101000a900473ffffffffffffffffffffffffffffffffffffffff1673ffffffffffffffffffffffffffffffffffffffff166370a08231306040518263ffffffff1660e01b8152600401808273ffffffffffffffffffffffffffffffffffffffff16815260200191505060206040518083038186803b15801561249557600080fd5b505afa1580156124a9573d6000803e3d6000fd5b505050506040513d60208110156124bf57600080fd5b81019080805190602001909291905050509050600660009054906101000a900473ffffffffffffffffffffffffffffffffffffffff1673ffffffffffffffffffffffffffffffffffffffff1663e8e33700600160009054906101000a900473ffffffffffffffffffffffffffffffffffffffff16600260009054906101000a900473ffffffffffffffffffffffffffffffffffffffff1685856001803061257161025842612d9190919063ffffffff16565b6040518963ffffffff1660e01b8152600401808973ffffffffffffffffffffffffffffffffffffffff1681526020018873ffffffffffffffffffffffffffffffffffffffff1681526020018781526020018681526020018581526020018481526020018373ffffffffffffffffffffffffffffffffffffffff16815260200182815260200198505050505050505050606060405180830381600087803b15801561261a57600080fd5b505af115801561262e573d6000803e3d6000fd5b505050506040513d606081101561264457600080fd5b810190808051906020019092919080519060200190929190805190602001909291905050505050505050565b612748600360009054906101000a900473ffffffffffffffffffffffffffffffffffffffff1673ffffffffffffffffffffffffffffffffffffffff166370a08231306040518263ffffffff1660e01b8152600401808273ffffffffffffffffffffffffffffffffffffffff16815260200191505060206040518083038186803b1580156126fc57600080fd5b505afa158015612710573d6000803e3d6000fd5b505050506040513d602081101561272657600080fd5b8101908080519060200190929190505050600954612d9190919063ffffffff16565b600981905550600560009054906101000a900473ffffffffffffffffffffffffffffffffffffffff1673ffffffffffffffffffffffffffffffffffffffff1663a694fc3a600360009054906101000a900473ffffffffffffffffffffffffffffffffffffffff1673ffffffffffffffffffffffffffffffffffffffff166370a08231306040518263ffffffff1660e01b8152600401808273ffffffffffffffffffffffffffffffffffffffff16815260200191505060206040518083038186803b15801561281557600080fd5b505afa158015612829573d6000803e3d6000fd5b505050506040513d602081101561283f57600080fd5b81019080805190602001909291905050506040518263ffffffff1660e01b815260040180828152602001915050600060405180830381600087803b15801561288657600080fd5b505af115801561289a573d6000803e3d6000fd5b50505050565b61295b846323b872dd60e01b858585604051602401808473ffffffffffffffffffffffffffffffffffffffff1681526020018373ffffffffffffffffffffffffffffffffffffffff1681526020018281526020019350505050604051602081830303815290604052907bffffffffffffffffffffffffffffffffffffffffffffffffffffffff19166020820180517bffffffffffffffffffffffffffffffffffffffffffffffffffffffff83818316178352505050506129ed565b50505050565b600560009054906101000a900473ffffffffffffffffffffffffffffffffffffffff1673ffffffffffffffffffffffffffffffffffffffff1663e9fad8ee6040518163ffffffff1660e01b8152600401600060405180830381600087803b1580156129cb57600080fd5b505af11580156129df573d6000803e3d6000fd5b505050506000600981905550565b6060612a4f826040518060400160405280602081526020017f5361666545524332303a206c6f772d6c6576656c2063616c6c206661696c65648152508573ffffffffffffffffffffffffffffffffffffffff16611ac19092919063ffffffff16565b9050600081511115612ad757808060200190516020811015612a7057600080fd5b8101908080519060200190929190505050612ad6576040517f08c379a000000000000000000000000000000000000000000000000000000000815260040180806020018281038252602a815260200180612f45602a913960400191505060405180910390fd5b5b505050565b606082471015612b37576040517f08c379a0000000000000000000000000000000000000000000000000000000008152600401808060200182810382526026815260200180612f1f6026913960400191505060405180910390fd5b612b4085612e19565b612bb2576040517f08c379a000000000000000000000000000000000000000000000000000000000815260040180806020018281038252601d8152602001807f416464726573733a2063616c6c20746f206e6f6e2d636f6e747261637400000081525060200191505060405180910390fd5b600060608673ffffffffffffffffffffffffffffffffffffffff1685876040518082805190602001908083835b60208310612c025780518252602082019150602081019050602083039250612bdf565b6001836020036101000a03801982511681845116808217855250505050505090500191505060006040518083038185875af1925050503d8060008114612c64576040519150601f19603f3d011682016040523d82523d6000602084013e612c69565b606091505b5091509150612c79828286612e2c565b92505050949350505050565b600082821115612cfd576040517f08c379a000000000000000000000000000000000000000000000000000000000815260040180806020018281038252601e8152602001807f536166654d6174683a207375627472616374696f6e206f766572666c6f77000081525060200191505060405180910390fd5b818303905092915050565b6000808211612d7f576040517f08c379a000000000000000000000000000000000000000000000000000000000815260040180806020018281038252601a8152602001807f536166654d6174683a206469766973696f6e206279207a65726f00000000000081525060200191505060405180910390fd5b818381612d8857fe5b04905092915050565b600080828401905083811015612e0f576040517f08c379a000000000000000000000000000000000000000000000000000000000815260040180806020018281038252601b8152602001807f536166654d6174683a206164646974696f6e206f766572666c6f77000000000081525060200191505060405180910390fd5b8091505092915050565b600080823b905060008111915050919050565b60608315612e3c57829050612ef1565b600083511115612e4f5782518084602001fd5b816040517f08c379a00000000000000000000000000000000000000000000000000000000081526004018080602001828103825283818151815260200191508051906020019080838360005b83811015612eb6578082015181840152602081019050612e9b565b50505050905090810190601f168015612ee35780820380516001836020036101000a031916815260200191505b509250505060405180910390fd5b939250505056fe4f776e61626c653a206e6577206f776e657220697320746865207a65726f2061646472657373416464726573733a20696e73756666696369656e742062616c616e636520666f722063616c6c5361666545524332303a204552433230206f7065726174696f6e20646964206e6f7420737563636565645361666545524332303a20617070726f76652066726f6d206e6f6e2d7a65726f20746f206e6f6e2d7a65726f20616c6c6f77616e6365a2646970667358221220706b194daa9236fe8bd645d578851bfbfc17e14be916ee1d015d0f82f95a9ae364736f6c63430007040033416464726573733a20696e73756666696369656e742062616c616e636520666f722063616c6c5361666545524332303a204552433230206f7065726174696f6e20646964206e6f7420737563636565645361666545524332303a20617070726f76652066726f6d206e6f6e2d7a65726f20746f206e6f6e2d7a65726f20616c6c6f77616e6365",
  "immutableReferences": {},
  "source": "// \"SPDX-License-Identifier: UNLICENSED\"\r\npragma solidity >=0.7.0 <0.8.0;\r\n\r\nimport 'openzeppelin-solidity/contracts/math/SafeMath.sol';\r\nimport 'openzeppelin-solidity/contracts/utils/Context.sol';\r\nimport 'openzeppelin-solidity/contracts/access/Ownable.sol';\r\nimport 'openzeppelin-solidity/contracts/token/ERC20/SafeERC20.sol';\r\n\r\ninterface IStakingRewards {\r\n    function earned(address account) external view returns (uint256);\r\n    function stake(uint256 amount) external;\r\n    function withdraw(uint256 amount) external;\r\n    function getReward() external;\r\n    function exit() external;\r\n}\r\n\r\ninterface IUniswapV2Router {\r\n    function addLiquidity(\r\n        address tokenA,\r\n        address tokenB,\r\n        uint amountADesired,\r\n        uint amountBDesired,\r\n        uint amountAMin,\r\n        uint amountBMin,\r\n        address to,\r\n        uint deadline\r\n    ) external returns (uint amountA, uint amountB, uint liquidity);\r\n    \r\n    function swapExactTokensForTokens(\r\n        uint amountIn, \r\n        uint amountOutMin, \r\n        address[] calldata path, \r\n        address to, \r\n        uint deadline\r\n    ) external returns (uint[] memory amounts);\r\n}\r\n\r\n\r\ncontract UniV2Optimizer is Ownable {\r\n    using SafeERC20 for IERC20;\r\n    using SafeMath for uint256;\r\n\r\n    \r\n    uint256 constant MAX_INT = 2**256 - 1;\r\n   \r\n    /**\r\n     * @dev Tokens addresses\r\n     */    \r\n    address public tokenA;\r\n    address public tokenB; \r\n    address public staking;\r\n    address public reward;\r\n\r\n    /**\r\n     * @dev Interfacing contracts addresses\r\n     */\r\n    address public stakingRewardAddr;\r\n    address public uniV2RouterAddr;\r\n    \r\n    /**\r\n     * @dev Token swap route addresses \r\n     */    \r\n    address[] public rewardToTokenA;\r\n    address[] public rewardToTokenB;\r\n\r\n    uint256 public staked = 0;\r\n\r\n    /**\r\n     * @dev Initializes the strategy for the given protocol\r\n     */\r\n    constructor(\r\n        address _tokenA,\r\n        address _tokenB,\r\n        address _staking,\r\n        address _reward,\r\n        address _stakingRewardAddr,\r\n        address _uniV2RouterAddr\r\n    ) {\r\n        tokenA = _tokenA;\r\n        tokenB = _tokenB;\r\n        staking = _staking;\r\n        reward = _reward;\r\n        stakingRewardAddr = _stakingRewardAddr;\r\n        uniV2RouterAddr = _uniV2RouterAddr;\r\n        rewardToTokenA = [_reward, _tokenA];\r\n        rewardToTokenB = [_reward, _tokenB];\r\n        \r\n        IERC20(_staking).safeApprove(_stakingRewardAddr, 0);\r\n        IERC20(_staking).safeApprove(_stakingRewardAddr, MAX_INT);\r\n        IERC20(_reward).safeApprove(_uniV2RouterAddr, 0);\r\n        IERC20(_reward).safeApprove(_uniV2RouterAddr, MAX_INT);        \r\n        IERC20(_tokenA).safeApprove(_uniV2RouterAddr, 0);\r\n        IERC20(_tokenA).safeApprove(_uniV2RouterAddr, MAX_INT);\r\n        IERC20(_tokenB).safeApprove(_uniV2RouterAddr, 0);\r\n        IERC20(_tokenB).safeApprove(_uniV2RouterAddr, MAX_INT);\r\n        \r\n    }\r\n\r\n    function stake(uint256 _amount) external onlyOwner {\r\n        require(IERC20(staking).balanceOf(address(msg.sender)) >= _amount);\r\n        IERC20(staking).safeTransferFrom(msg.sender, address(this), _amount);\r\n        _stakeAll();\r\n    }\r\n    \r\n\r\n    function withdraw(uint256 _amount) external onlyOwner {\r\n        _withdraw(_amount);\r\n        IERC20(staking).safeTransfer(msg.sender, _amount);\r\n    }\r\n\r\n\r\n    function harvest() external onlyOwner {\r\n        _claimReward();\r\n        _splitRewardToStaking();\r\n        _mintStaking();\r\n        _stakeAll();\r\n    }\r\n   \r\n    function exitAvalanche() external onlyOwner {\r\n        _exit();\r\n        _splitRewardToStaking();\r\n        _mintStaking();\r\n\r\n        if(IERC20(staking).balanceOf(address(this)) > 0){\r\n            IERC20(staking).safeTransfer(msg.sender, IERC20(staking).balanceOf(address(this)));\r\n        }\r\n        if(IERC20(tokenA).balanceOf(address(this)) > 0){\r\n            IERC20(tokenA).safeTransfer(msg.sender, IERC20(tokenA).balanceOf(address(this)));\r\n        }\r\n        if(IERC20(tokenB).balanceOf(address(this)) > 0){\r\n            IERC20(tokenB).safeTransfer(msg.sender, IERC20(tokenB).balanceOf(address(this)));\r\n        }\r\n        if(IERC20(reward).balanceOf(address(this)) > 0){\r\n            IERC20(reward).safeTransfer(msg.sender, IERC20(reward).balanceOf(address(this)));\r\n        }\r\n    }\r\n    \r\n    function recoverERC20(address _ERC20) external onlyOwner {\r\n        if(IERC20(_ERC20).balanceOf(address(this)) > 0){\r\n            IERC20(_ERC20).safeTransfer(msg.sender, IERC20(_ERC20).balanceOf(address(this)));\r\n        }        \r\n    }\r\n\r\n    function getPendingRewards() external view onlyOwner returns(uint256) {\r\n        uint256 pendingReward = IStakingRewards(stakingRewardAddr).earned(address(this));\r\n        return pendingReward;\r\n    }\r\n\r\n    function _stakeAll() internal {\r\n        staked = staked.add(IERC20(staking).balanceOf(address(this)));\r\n        IStakingRewards(stakingRewardAddr).stake(IERC20(staking).balanceOf(address(this)));\r\n    }\r\n\r\n    function _withdraw(uint256 _amount) internal {\r\n        IStakingRewards(stakingRewardAddr).withdraw(_amount);\r\n        staked = staked.sub(_amount);\r\n    }\r\n\r\n    function _exit() internal {\r\n        IStakingRewards(stakingRewardAddr).exit();\r\n        staked = 0;\r\n    }\r\n\r\n    function _claimReward() internal {\r\n        if(staked > 0) {\r\n            IStakingRewards(stakingRewardAddr).getReward();\r\n        }\r\n    } \r\n    \r\n    function _splitRewardToStaking() internal {\r\n        if(IERC20(reward).balanceOf(address(this)) > 0){\r\n            uint256 rewardSplit = IERC20(reward).balanceOf(address(this)).div(2);\r\n            IUniswapV2Router(uniV2RouterAddr).swapExactTokensForTokens(\r\n                rewardSplit,\r\n                0,\r\n                rewardToTokenA,\r\n                address(this),\r\n                block.timestamp.add(600)\r\n            );\r\n            IUniswapV2Router(uniV2RouterAddr).swapExactTokensForTokens(\r\n                IERC20(reward).balanceOf(address(this)),\r\n                0,\r\n                rewardToTokenB,\r\n                address(this),\r\n                block.timestamp.add(600)\r\n            );              \r\n        }\r\n    }\r\n\r\n    function _mintStaking() internal {\r\n        uint256 balanceA = IERC20(tokenA).balanceOf(address(this));\r\n        uint256 balanceB = IERC20(tokenB).balanceOf(address(this));\r\n        IUniswapV2Router(uniV2RouterAddr).addLiquidity(\r\n            address(IERC20(tokenA)),\r\n            address(IERC20(tokenB)),\r\n            balanceA,\r\n            balanceB,\r\n            1,\r\n            1,\r\n            address(this),\r\n            block.timestamp.add(600)\r\n        );\r\n    }\r\n}    \r\n",
  "sourcePath": "E:\\_dev\\solidity\\PolygonOptimizer\\contracts\\UniV2Optimizer.sol",
  "compiler": {
    "name": "solc",
    "version": "0.7.4+commit.3f05b770.Emscripten.clang"
  },
  "schemaVersion": "3.3.4",
  "updatedAt": "2021-04-24T06:29:10.424Z",
  "networkType": "ethereum",
  "devdoc": {
    "kind": "dev",
    "methods": {
      "constructor": {
        "details": "Initializes the strategy for the given protocol"
      },
      "owner()": {
        "details": "Returns the address of the current owner."
      },
      "renounceOwnership()": {
        "details": "Leaves the contract without owner. It will not be possible to call `onlyOwner` functions anymore. Can only be called by the current owner. NOTE: Renouncing ownership will leave the contract without an owner, thereby removing any functionality that is only available to the owner."
      },
      "transferOwnership(address)": {
        "details": "Transfers ownership of the contract to a new account (`newOwner`). Can only be called by the current owner."
      }
    },
    "stateVariables": {
      "rewardToTokenA": {
        "details": "Token swap route addresses "
      },
      "stakingRewardAddr": {
        "details": "Interfacing contracts addresses"
      },
      "tokenA": {
        "details": "Tokens addresses"
      }
    },
    "version": 1
  },
  "userdoc": {
    "kind": "user",
    "methods": {},
    "version": 1
  }
}